:0400000055EF00F0C8
:06000800608299ED05F095
:100018006080D8CF4FF0E8CF50F0E0CF51F0FACF62
:1000280052F0FBCF53F0E9CF54F0EACF55F0E1CFCF
:1000380056F0E2CF57F0D9CF58F0DACF59F0F3CFD6
:100048005AF0F4CF5BF0F6CF5CF0F7CF5DF0F8CF65
:100058005EF0F5CF5FF0F29EF28E5FC0F5FF5EC0F6
:10006800F8FF5DC0F7FF5CC0F6FF5BC0F4FF5AC045
:10007800F3FF59C0DAFF58C0D9FF57C0E2FF56C096
:10008800E1FF55C0EAFF54C0E9FF53C0FBFF52C06F
:10009800FAFF51C0E0FF50C0E8FF4FC0D8FF6090A2
:0600A8001000B2EF06F0AB
:1006000000010010000001001050726F6772616DF0
:100610002073746172740A0D3031323334353637D9
:10062000383941424344454600307825303458003B
:0106300000C9
:100632008B0E0001926F000E0001936F39D1250ECF
:1006420000019A19D8B40AD087C0D9FF88C0DAFF4E
:100652009AC0DFFF0001874B882B2AD1000E0001D0
:10066200996F000E986F000E0001946F05D0000183
:1006720094850001894B8A2B89C0F6FF8AC0F7FF57
:100682000800F550300AD8B4F2D789C0F6FF8AC004
:10069200F7FF0800F550EAEC06F0D8A040D0000EB3
:1006A2000001996F000E986F98C080F099C081F098
:1006B200000E0001836F0A0E826FCFEC06F080C03D
:1006C20098F081C099F0D00E00018D6FFF0E0001ED
:1006D2008E6F89C0F6FF8AC0F7FF0800F55000014F
:1006E2008F6F906B00018D5100018F2700018E5199
:1006F2000001902300018F510001982700019051C1
:10070200000199230001894B8A2B89C0F6FF8AC018
:10071200F7FF0800F550EAEC06F0D8B0C5D789C05B
:10072200F6FF8AC0F7FF0001894B8A2B0800F5CF3C
:100732009AF000019A51000AD8B4C8D0580AD8B425
:1007420003D0200AD8A4B4D092C0D9FF93C0DAFF54
:10075200DECF95F0DDCF96F0020E00019227000E5B
:100762009323010E00019A6F040E00019A19D8B466
:1007720016D000019A51020D010EF324F66E060EF8
:10078200F420F76E0900F5500001955D0900F5505F
:1007920000019659D8A003D000019A2BE5D7800E0C
:1007A20000019ABF7F0E00018D6F00019851000178
:1007B2009A5D00019951800A00018D59D8B00BD081
:1007C20000019A510001985F000E00019ABFFF0ECE
:1007D2000001995B05D0000E0001996F000E986F21
:1007E200000194A514D00001985100019911D8B4C8
:1007F20027D087C0D9FF88C0DAFF300EDF6E000134
:10080200874B882B00019807D8A09907ECD70001E5
:10081200985100019911D8B413D087C0D9FF88C06C
:10082200DAFF200EDF6E0001874B882B000198074C
:10083200D8A099070001985100019911D8A4EDD7C9
:100842009AC097F02FD095C080F096C081F0000139
:100852009751020D010EF324F66E060EF420F76E88
:100862000900F5CF82F00A00F5CF83F0D6EC05F04F
:10087200000180510F0B0001916F00019151010D98
:10088200180EF324F66E060EF420F76E0800F5CF6C
:100892009AF087C0D9FF88C0DAFF9AC0DFFF000153
:1008A200874B882B0001970700019729D8A4CBD743
:1008B20089C0F6FF8AC0F7FF0001894B8A2B080026
:1008C200F5CF9AF000019A51D8A4B9D687C0D9FFC2
:1008D20088C0DAFF000EDF6E1200000E0001CC6F3E
:1008E20020EE01F010EE8AF03F0EDBCFE3FFE806C8
:1008F200FCE286C0CAF087C0CBF0000E0001CC6FCC
:100902000001CC51800A400FD8B017D0CAC0F6FF00
:10091200CBC0F7FFF86A08000001CC51010D8A0E26
:10092200F324D96E000EF420DA6EF5CFDFFF00015A
:10093200CA4BCB2B0001CC2BE3D786C080F087C0FB
:1009420081F0FFEC06F086C0CAF087C0CBF0000E43
:100952000001CC6F0001CC51800A600FD8B026D0C4
:10096200CAC0F6FFCBC0F7FFF86A0001CC51000104
:10097200806F816B80BF8107000E0001836F010EC3
:10098200826FCFEC06F00001805100018825D96EFC
:100992000001815100018921DA6EDF50F56E0C00F1
:1009A2000001CA4BCB2B0001CC2BD4D711EC07F0A2
:1009B200200E0001CC6F0001CC51800A400FD8B04C
:1009C20026D0CAC0F6FFCBC0F7FFF86A0001CC51AF
:1009D2000001806F816B80BF8107000E0001836F71
:1009E200010E826FCFEC06F00001805100018825D4
:1009F200D96E0001815100018921DA6EDF50F56E56
:100A02000C000001CA4BCB2B0001CC2BD4D711EC2C
:100A120007F0120021EE41F011EE00F03F0EDBCFA5
:100A2200E3FFE806FCE2D38ED388D38AD38C030E8D
:100A3200D312D3A4FED7000E0101406F3F0E010175
:100A4200406501D00ED001014051010D000EF3248A
:100A5200D96E010EF420DA6E40C1DFFF0101402B96
:100A6200EDD7000E936E000E8A6E000E0001816FAC
:100A7200330E806F000E0001836F000E826F000E36
:100A82000001856F010E846F000E0001876F000E5A
:100A9200866F93EC06F0150E0001CE6F4B0E00012F
:100AA200CD6FBE0EE82EFED7CD2FFCD7CE2FFAD7B4
:100AB20000F0090E0001816F060E0001826F000E28
:100AC2000001846F0F0E836F45EC06F0D08EF28E1C
:100AD200F28C7F0E0001876FC00E866F000E000140
:100AE200886F010E0001896F6EEC04F0000E0001A8
:100AF200876F020E0001886F290E0001896F060EB2
:100B020000018A6F7F0E0001816FE60E806F12EC8A
:100B120006F080C08BF081C08CF019EC03F0000E5F
:100B22000001816F020E0001826F70EC06F0FFD7A8
:100B32000600FACF41F0FBCF42F0E9CF43F0EACF13
:100B420044F0E1CF45F0E2CF46F0D9CF47F0DACF1B
:100B520048F0F3CF49F0F4CF4AF0F6CF4BF0F7CF9D
:100B62004CF0F8CF4DF0F5CF4EF0F29EF28E4EC023
:100B7200F5FF4DC0F8FF4CC0F7FF4BC0F6FF4AC06F
:100B8200F4FF49C0F3FF48C0DAFF47C0D9FF46C0AF
:100B9200E2FF45C0E1FF44C0EAFF43C0E9FF42C0B3
:100BA200FBFF41C0FAFF60921100000E0001866F48
:100BB200000E856F0001825100018311D8B42CD040
:100BC200010E0001846F06D00001D890823783376E
:100BD2000001842B000183AFF7D70001D89085373D
:100BE2008637000182510001805D000183510001BE
:100BF2008159D8A00AD0000182510001805F000112
:100C020083510001815B000185810001D89083330B
:100C120082330001842FE1D785C080F086C081F045
:100C22001200000E0001846F000E0001856F010E9C
:100C3200000180250001826F000E00018121000168
:100C4200836F82C0F6FF83C0F7FFF86A0800F5CF12
:100C520084F080C0F6FF81C0F7FFF86A0800F5CF84
:100C620085F00001855184C082F00001836B82C04F
:100C720083F00001826B000182110001806F00018C
:100C820083510001816F1200000E0001876F17D09F
:100C920000018751010D81C085F082C086F0F350BA
:100CA20000018527F4500001862385C0F6FF86C027
:100CB200F7FF0800F5501EEC07F00001872B00013A
:100CC20087510001856F866B000183510001855DAC
:100CD2000001845100018659D8B01200D9D7000E04
:100CE2000001836F10D000018351010DF350000108
:100CF2008125D96EF45000018221DA6EDF501EEC9C
:100D020007F00001832B00018351010DF350000114
:100D12008125D96EF45000018221DA6EDF50D8B4F9
:100D22001200E1D7948E948C00018151B06E80C084
:100D3200AFFFAB88AB8E000186B102D0B89601D06E
:100D4200B886000182B102D0AC9801D0AC88000113
:100D520084B102D0AC9401D0AC84AC8A9F8A9D8AC3
:100D6200120002EE00F011EE00F0EE6AE550E150E2
:100D7200FCE1E250FAE101EE41F0400EEE6AE806D3
:100D8200FDE100EE01F0400EEE6AE806FDE1609042
:100D92006092000EF86E00010BEF05F00001805129
:100DA20000018203F3CF84F0F4CF85F0000180517B
:100DB20000018303F35000018527000181510001E6
:100DC2008203F3500001852784C080F085C081F042
:100DD20012000001826F000E0001816F3A0E0001C5
:100DE200826107D02F0E0001826503D0010E00013F
:100DF200816F81C080F000018031120080C0F6FF57
:100E020081C0F7FFF86AA68EA69CA684A688F29EE9
:100E1200550EA76EAA0EA76EA682A694F28E120097
:100E2200A68EA69CA684A698F29E550EA76EAA0E22
:100E3200A76EA682A694F28E12000001806F80C077
:0C0E4200ADFF01D000F0ACB21200FCD7F4
:020000040020DA
:08000000FFFFFFFFFFFFFFFF00
:020000040030CA
:0E000000FF08191EFF8181FF0FC00FE00F40A7
:00000001FF
